{"abi":[{"type":"function","name":"flowCalls","inputs":[{"name":"","type":"uint256","internalType":"uint256"}],"outputs":[{"name":"token","type":"address","internalType":"address"},{"name":"sender","type":"address","internalType":"address"},{"name":"receiver","type":"address","internalType":"address"},{"name":"flowrate","type":"int96","internalType":"int96"}],"stateMutability":"view"},{"type":"function","name":"flowrates","inputs":[{"name":"","type":"address","internalType":"address"},{"name":"","type":"address","internalType":"address"},{"name":"","type":"address","internalType":"address"}],"outputs":[{"name":"","type":"int96","internalType":"int96"}],"stateMutability":"view"},{"type":"function","name":"getAccountFlowInfo","inputs":[{"name":"token","type":"address","internalType":"address"},{"name":"account","type":"address","internalType":"address"}],"outputs":[{"name":"lastUpdated","type":"uint256","internalType":"uint256"},{"name":"flowrate","type":"int96","internalType":"int96"},{"name":"deposit","type":"uint256","internalType":"uint256"},{"name":"owedDeposit","type":"uint256","internalType":"uint256"}],"stateMutability":"view"},{"type":"function","name":"getFlowCall","inputs":[{"name":"idx","type":"uint256","internalType":"uint256"}],"outputs":[{"name":"","type":"tuple","internalType":"struct MockCFAv1Forwarder.FlowCall","components":[{"name":"token","type":"address","internalType":"address"},{"name":"sender","type":"address","internalType":"address"},{"name":"receiver","type":"address","internalType":"address"},{"name":"flowrate","type":"int96","internalType":"int96"}]}],"stateMutability":"view"},{"type":"function","name":"getFlowCallCount","inputs":[],"outputs":[{"name":"","type":"uint256","internalType":"uint256"}],"stateMutability":"view"},{"type":"function","name":"getFlowrate","inputs":[{"name":"token","type":"address","internalType":"address"},{"name":"sender","type":"address","internalType":"address"},{"name":"receiver","type":"address","internalType":"address"}],"outputs":[{"name":"","type":"int96","internalType":"int96"}],"stateMutability":"view"},{"type":"function","name":"grantPermissions","inputs":[{"name":"","type":"address","internalType":"address"},{"name":"","type":"address","internalType":"address"}],"outputs":[{"name":"","type":"bool","internalType":"bool"}],"stateMutability":"pure"},{"type":"function","name":"permissions","inputs":[{"name":"","type":"address","internalType":"address"},{"name":"","type":"address","internalType":"address"}],"outputs":[{"name":"","type":"bool","internalType":"bool"}],"stateMutability":"view"},{"type":"function","name":"resetCalls","inputs":[],"outputs":[],"stateMutability":"nonpayable"},{"type":"function","name":"revokePermissions","inputs":[{"name":"","type":"address","internalType":"address"},{"name":"","type":"address","internalType":"address"}],"outputs":[{"name":"","type":"bool","internalType":"bool"}],"stateMutability":"pure"},{"type":"function","name":"setFlowrateFrom","inputs":[{"name":"token","type":"address","internalType":"address"},{"name":"sender","type":"address","internalType":"address"},{"name":"receiver","type":"address","internalType":"address"},{"name":"flowrate","type":"int96","internalType":"int96"}],"outputs":[{"name":"","type":"bool","internalType":"bool"}],"stateMutability":"nonpayable"}],"bytecode":{"object":"0x6080604052348015600e575f5ffd5b50610d988061001c5f395ff3fe608060405234801561000f575f5ffd5b50600436106100a7575f3560e01c80631f9838b51161006f5780631f9838b5146101a15780635cf3b781146101d15780635f532de9146101ef5780637243fb931461021f578063befb3e5c1461024f578063c5ad5c1a14610259576100a7565b80630a19a1b0146100ab5780630bd0728d146100db5780630f1ac4951461010b5780631d5b96d61461013e5780631d8b652614610171575b5f5ffd5b6100c560048036038101906100c09190610a0d565b610289565b6040516100d29190610a78565b60405180910390f35b6100f560048036038101906100f09190610a91565b6102bd565b6040516101029190610ae9565b60405180910390f35b61012560048036038101906101209190610a91565b6102c8565b6040516101359493929190610b1a565b60405180910390f35b61015860048036038101906101539190610b87565b6102e1565b6040516101689493929190610bc1565b60405180910390f35b61018b60048036038101906101869190610a0d565b610386565b6040516101989190610a78565b60405180910390f35b6101bb60048036038101906101b69190610a91565b61044f565b6040516101c89190610ae9565b60405180910390f35b6101d9610479565b6040516101e69190610c04565b60405180910390f35b61020960048036038101906102049190610b87565b610485565b6040516102169190610c8e565b60405180910390f35b61023960048036038101906102349190610a91565b6105da565b6040516102469190610ae9565b60405180910390f35b6102576105e5565b005b610273600480360381019061026e9190610cd1565b6105f4565b6040516102809190610ae9565b60405180910390f35b5f602052825f5260405f20602052815f5260405f20602052805f5260405f205f92509250509054906101000a9004600b0b81565b5f6001905092915050565b5f5f5f5f425f5f5f935093509350935092959194509250565b600181815481106102f0575f80fd5b905f5260205f2090600302015f91509050805f015f9054906101000a900473ffffffffffffffffffffffffffffffffffffffff1690806001015f9054906101000a900473ffffffffffffffffffffffffffffffffffffffff1690806002015f9054906101000a900473ffffffffffffffffffffffffffffffffffffffff16908060020160149054906101000a9004600b0b905084565b5f5f5f8573ffffffffffffffffffffffffffffffffffffffff1673ffffffffffffffffffffffffffffffffffffffff1681526020019081526020015f205f8473ffffffffffffffffffffffffffffffffffffffff1673ffffffffffffffffffffffffffffffffffffffff1681526020019081526020015f205f8373ffffffffffffffffffffffffffffffffffffffff1673ffffffffffffffffffffffffffffffffffffffff1681526020019081526020015f205f9054906101000a9004600b0b90509392505050565b6002602052815f5260405f20602052805f5260405f205f915091509054906101000a900460ff1681565b5f600180549050905090565b61048d61087e565b600182815481106104a1576104a0610d35565b5b905f5260205f2090600302016040518060800160405290815f82015f9054906101000a900473ffffffffffffffffffffffffffffffffffffffff1673ffffffffffffffffffffffffffffffffffffffff1673ffffffffffffffffffffffffffffffffffffffff168152602001600182015f9054906101000a900473ffffffffffffffffffffffffffffffffffffffff1673ffffffffffffffffffffffffffffffffffffffff1673ffffffffffffffffffffffffffffffffffffffff168152602001600282015f9054906101000a900473ffffffffffffffffffffffffffffffffffffffff1673ffffffffffffffffffffffffffffffffffffffff1673ffffffffffffffffffffffffffffffffffffffff1681526020016002820160149054906101000a9004600b0b600b0b600b0b815250509050919050565b5f6001905092915050565b60015f6105f291906108e7565b565b5f815f5f8773ffffffffffffffffffffffffffffffffffffffff1673ffffffffffffffffffffffffffffffffffffffff1681526020019081526020015f205f8673ffffffffffffffffffffffffffffffffffffffff1673ffffffffffffffffffffffffffffffffffffffff1681526020019081526020015f205f8573ffffffffffffffffffffffffffffffffffffffff1673ffffffffffffffffffffffffffffffffffffffff1681526020019081526020015f205f6101000a8154816bffffffffffffffffffffffff0219169083600b0b6bffffffffffffffffffffffff160217905550600160405180608001604052808773ffffffffffffffffffffffffffffffffffffffff1681526020018673ffffffffffffffffffffffffffffffffffffffff1681526020018573ffffffffffffffffffffffffffffffffffffffff16815260200184600b0b815250908060018154018082558091505060019003905f5260205f2090600302015f909190919091505f820151815f015f6101000a81548173ffffffffffffffffffffffffffffffffffffffff021916908373ffffffffffffffffffffffffffffffffffffffff1602179055506020820151816001015f6101000a81548173ffffffffffffffffffffffffffffffffffffffff021916908373ffffffffffffffffffffffffffffffffffffffff1602179055506040820151816002015f6101000a81548173ffffffffffffffffffffffffffffffffffffffff021916908373ffffffffffffffffffffffffffffffffffffffff16021790555060608201518160020160146101000a8154816bffffffffffffffffffffffff0219169083600b0b6bffffffffffffffffffffffff160217905550505060019050949350505050565b60405180608001604052805f73ffffffffffffffffffffffffffffffffffffffff1681526020015f73ffffffffffffffffffffffffffffffffffffffff1681526020015f73ffffffffffffffffffffffffffffffffffffffff1681526020015f600b0b81525090565b5080545f8255600302905f5260205f20908101906109059190610908565b50565b5b808211156109ab575f5f82015f6101000a81549073ffffffffffffffffffffffffffffffffffffffff0219169055600182015f6101000a81549073ffffffffffffffffffffffffffffffffffffffff0219169055600282015f6101000a81549073ffffffffffffffffffffffffffffffffffffffff02191690556002820160146101000a8154906bffffffffffffffffffffffff021916905550600301610909565b5090565b5f5ffd5b5f73ffffffffffffffffffffffffffffffffffffffff82169050919050565b5f6109dc826109b3565b9050919050565b6109ec816109d2565b81146109f6575f5ffd5b50565b5f81359050610a07816109e3565b92915050565b5f5f5f60608486031215610a2457610a236109af565b5b5f610a31868287016109f9565b9350506020610a42868287016109f9565b9250506040610a53868287016109f9565b9150509250925092565b5f81600b0b9050919050565b610a7281610a5d565b82525050565b5f602082019050610a8b5f830184610a69565b92915050565b5f5f60408385031215610aa757610aa66109af565b5b5f610ab4858286016109f9565b9250506020610ac5858286016109f9565b9150509250929050565b5f8115159050919050565b610ae381610acf565b82525050565b5f602082019050610afc5f830184610ada565b92915050565b5f819050919050565b610b1481610b02565b82525050565b5f608082019050610b2d5f830187610b0b565b610b3a6020830186610a69565b610b476040830185610b0b565b610b546060830184610b0b565b95945050505050565b610b6681610b02565b8114610b70575f5ffd5b50565b5f81359050610b8181610b5d565b92915050565b5f60208284031215610b9c57610b9b6109af565b5b5f610ba984828501610b73565b91505092915050565b610bbb816109d2565b82525050565b5f608082019050610bd45f830187610bb2565b610be16020830186610bb2565b610bee6040830185610bb2565b610bfb6060830184610a69565b95945050505050565b5f602082019050610c175f830184610b0b565b92915050565b610c26816109d2565b82525050565b610c3581610a5d565b82525050565b608082015f820151610c4f5f850182610c1d565b506020820151610c626020850182610c1d565b506040820151610c756040850182610c1d565b506060820151610c886060850182610c2c565b50505050565b5f608082019050610ca15f830184610c3b565b92915050565b610cb081610a5d565b8114610cba575f5ffd5b50565b5f81359050610ccb81610ca7565b92915050565b5f5f5f5f60808587031215610ce957610ce86109af565b5b5f610cf6878288016109f9565b9450506020610d07878288016109f9565b9350506040610d18878288016109f9565b9250506060610d2987828801610cbd565b91505092959194509250565b7f4e487b71000000000000000000000000000000000000000000000000000000005f52603260045260245ffdfea26469706673582212200e8d0a1c7eeaa4342d041baad4258621a6a756c4d17954754748091719c0970764736f6c634300081e0033","linkReferences":{}},"methodIdentifiers":{"flowCalls(uint256)":"1d5b96d6","flowrates(address,address,address)":"0a19a1b0","getAccountFlowInfo(address,address)":"0f1ac495","getFlowCall(uint256)":"5f532de9","getFlowCallCount()":"5cf3b781","getFlowrate(address,address,address)":"1d8b6526","grantPermissions(address,address)":"7243fb93","permissions(address,address)":"1f9838b5","resetCalls()":"befb3e5c","revokePermissions(address,address)":"0bd0728d","setFlowrateFrom(address,address,address,int96)":"c5ad5c1a"},"id":1}