{"abi":[{"type":"constructor","inputs":[{"name":"_forwarder","type":"address","internalType":"address"},{"name":"_token","type":"address","internalType":"address"},{"name":"_streamEpoch","type":"uint256","internalType":"uint256"}],"stateMutability":"nonpayable"},{"type":"function","name":"forwarder","inputs":[],"outputs":[{"name":"","type":"address","internalType":"contract ICFAv1Forwarder"}],"stateMutability":"view"},{"type":"function","name":"fundReserve","inputs":[{"name":"amount","type":"uint256","internalType":"uint256"}],"outputs":[],"stateMutability":"nonpayable"},{"type":"function","name":"getActiveStreams","inputs":[],"outputs":[{"name":"froms","type":"address[]","internalType":"address[]"},{"name":"tos","type":"address[]","internalType":"address[]"},{"name":"rates","type":"int96[]","internalType":"int96[]"}],"stateMutability":"view"},{"type":"function","name":"getAllocations","inputs":[{"name":"nodeIdx","type":"uint256","internalType":"uint256"}],"outputs":[{"name":"targets","type":"uint256[]","internalType":"uint256[]"},{"name":"weights","type":"uint96[]","internalType":"uint96[]"}],"stateMutability":"view"},{"type":"function","name":"getNetworkState","inputs":[],"outputs":[{"name":"","type":"address[]","internalType":"address[]"},{"name":"","type":"uint256[]","internalType":"uint256[]"},{"name":"","type":"uint256[]","internalType":"uint256[]"}],"stateMutability":"view"},{"type":"function","name":"getNodeCount","inputs":[],"outputs":[{"name":"","type":"uint256","internalType":"uint256"}],"stateMutability":"view"},{"type":"function","name":"isNode","inputs":[{"name":"","type":"address","internalType":"address"}],"outputs":[{"name":"","type":"bool","internalType":"bool"}],"stateMutability":"view"},{"type":"function","name":"lastSettleConverged","inputs":[],"outputs":[{"name":"","type":"bool","internalType":"bool"}],"stateMutability":"view"},{"type":"function","name":"lastSettleIterations","inputs":[],"outputs":[{"name":"","type":"uint256","internalType":"uint256"}],"stateMutability":"view"},{"type":"function","name":"lastSettleTimestamp","inputs":[],"outputs":[{"name":"","type":"uint256","internalType":"uint256"}],"stateMutability":"view"},{"type":"function","name":"lastSettleTotalRedistributed","inputs":[],"outputs":[{"name":"","type":"uint256","internalType":"uint256"}],"stateMutability":"view"},{"type":"function","name":"nodeIndex","inputs":[{"name":"","type":"address","internalType":"address"}],"outputs":[{"name":"","type":"uint256","internalType":"uint256"}],"stateMutability":"view"},{"type":"function","name":"nodes","inputs":[{"name":"","type":"uint256","internalType":"uint256"}],"outputs":[{"name":"","type":"address","internalType":"address"}],"stateMutability":"view"},{"type":"function","name":"owner","inputs":[],"outputs":[{"name":"","type":"address","internalType":"address"}],"stateMutability":"view"},{"type":"function","name":"registerNode","inputs":[{"name":"node","type":"address","internalType":"address"},{"name":"maxThreshold","type":"uint256","internalType":"uint256"}],"outputs":[],"stateMutability":"nonpayable"},{"type":"function","name":"removeNode","inputs":[{"name":"node","type":"address","internalType":"address"}],"outputs":[],"stateMutability":"nonpayable"},{"type":"function","name":"setAllocations","inputs":[{"name":"fromNode","type":"address","internalType":"address"},{"name":"targetIndices","type":"uint256[]","internalType":"uint256[]"},{"name":"weights","type":"uint96[]","internalType":"uint96[]"}],"outputs":[],"stateMutability":"nonpayable"},{"type":"function","name":"setStreamEpoch","inputs":[{"name":"epochSeconds","type":"uint256","internalType":"uint256"}],"outputs":[],"stateMutability":"nonpayable"},{"type":"function","name":"settle","inputs":[],"outputs":[],"stateMutability":"nonpayable"},{"type":"function","name":"streamEpoch","inputs":[],"outputs":[{"name":"","type":"uint256","internalType":"uint256"}],"stateMutability":"view"},{"type":"function","name":"thresholds","inputs":[{"name":"","type":"uint256","internalType":"uint256"}],"outputs":[{"name":"","type":"uint256","internalType":"uint256"}],"stateMutability":"view"},{"type":"function","name":"token","inputs":[],"outputs":[{"name":"","type":"address","internalType":"contract ISuperToken"}],"stateMutability":"view"},{"type":"event","name":"AllocationsSet","inputs":[{"name":"fromNode","type":"address","indexed":true,"internalType":"address"}],"anonymous":false},{"type":"event","name":"NodeRegistered","inputs":[{"name":"node","type":"address","indexed":true,"internalType":"address"},{"name":"maxThreshold","type":"uint256","indexed":false,"internalType":"uint256"}],"anonymous":false},{"type":"event","name":"NodeRemoved","inputs":[{"name":"node","type":"address","indexed":true,"internalType":"address"}],"anonymous":false},{"type":"event","name":"Settled","inputs":[{"name":"iterations","type":"uint256","indexed":false,"internalType":"uint256"},{"name":"converged","type":"bool","indexed":false,"internalType":"bool"},{"name":"totalRedistributed","type":"uint256","indexed":false,"internalType":"uint256"}],"anonymous":false},{"type":"event","name":"StreamCreated","inputs":[{"name":"from","type":"address","indexed":true,"internalType":"address"},{"name":"to","type":"address","indexed":true,"internalType":"address"},{"name":"flowrate","type":"int96","indexed":false,"internalType":"int96"}],"anonymous":false},{"type":"event","name":"StreamDeleted","inputs":[{"name":"from","type":"address","indexed":true,"internalType":"address"},{"name":"to","type":"address","indexed":true,"internalType":"address"}],"anonymous":false},{"type":"event","name":"StreamError","inputs":[{"name":"from","type":"address","indexed":true,"internalType":"address"},{"name":"to","type":"address","indexed":true,"internalType":"address"},{"name":"reason","type":"bytes","indexed":false,"internalType":"bytes"}],"anonymous":false},{"type":"event","name":"StreamUpdated","inputs":[{"name":"from","type":"address","indexed":true,"internalType":"address"},{"name":"to","type":"address","indexed":true,"internalType":"address"},{"name":"newRate","type":"int96","indexed":false,"internalType":"int96"}],"anonymous":false},{"type":"error","name":"InvalidTargets","inputs":[]},{"type":"error","name":"InvalidWeights","inputs":[]},{"type":"error","name":"NodeAlreadyRegistered","inputs":[]},{"type":"error","name":"NodeNotRegistered","inputs":[]},{"type":"error","name":"OnlyOwner","inputs":[]}],"bytecode":{"object":"0x608060405234801561000f575f5ffd5b50604051614765380380614765833981810160405281019061003191906101b6565b3360025f6101000a81548173ffffffffffffffffffffffffffffffffffffffff021916908373ffffffffffffffffffffffffffffffffffffffff1602179055508260015f6101000a81548173ffffffffffffffffffffffffffffffffffffffff021916908373ffffffffffffffffffffffffffffffffffffffff160217905550815f5f6101000a81548173ffffffffffffffffffffffffffffffffffffffff021916908373ffffffffffffffffffffffffffffffffffffffff1602179055508060038190555060085f908060018154018082558091505060019003905f5260205f20015f9091909190915055505050610206565b5f5ffd5b5f73ffffffffffffffffffffffffffffffffffffffff82169050919050565b5f61015282610129565b9050919050565b61016281610148565b811461016c575f5ffd5b50565b5f8151905061017d81610159565b92915050565b5f819050919050565b61019581610183565b811461019f575f5ffd5b50565b5f815190506101b08161018c565b92915050565b5f5f5f606084860312156101cd576101cc610125565b5b5f6101da8682870161016f565b93505060206101eb8682870161016f565b92505060406101fc868287016101a2565b9150509250925092565b614552806102135f395ff3fe608060405234801561000f575f5ffd5b5060043610610140575f3560e01c806375c54224116100b6578063b2b99ec91161007a578063b2b99ec914610341578063b6c226111461035d578063d673de461461038d578063f645d4f9146103bd578063fbfbb3de146103db578063fc0c546a146103fb57610140565b806375c54224146102af5780638da5cb5b146102cb57806393024b84146102e9578063a4f15c6d14610305578063aa7b9fd71461032157610140565b80631c53c280116101085780631c53c280146101d85780631db972141461020857806339bf397e146102265780633bc25e5914610244578063514b0a2114610260578063553f1c621461029157610140565b806301750152146101445780630a72937d1461017457806311da60b41461019257806316f530391461019c57806318980ca1146101ba575b5f5ffd5b61015e60048036038101906101599190613857565b610419565b60405161016b919061389c565b60405180910390f35b61017c610436565b60405161018991906138cd565b60405180910390f35b61019a61043c565b005b6101a46105b4565b6040516101b1919061389c565b60405180910390f35b6101c26105c6565b6040516101cf91906138cd565b60405180910390f35b6101f260048036038101906101ed9190613910565b6105cc565b6040516101ff919061394a565b60405180910390f35b610210610607565b60405161021d91906138cd565b60405180910390f35b61022e61060d565b60405161023b91906138cd565b60405180910390f35b61025e60048036038101906102599190613910565b610619565b005b61027a60048036038101906102759190613910565b6106a9565b604051610288929190613ae8565b60405180910390f35b61029961088a565b6040516102a691906138cd565b60405180910390f35b6102c960048036038101906102c49190613910565b610890565b005b6102d3610931565b6040516102e0919061394a565b60405180910390f35b61030360048036038101906102fe9190613bd3565b610956565b005b61031f600480360381019061031a9190613c64565b610c3a565b005b610329610f07565b60405161033893929190613d59565b60405180910390f35b61035b60048036038101906103569190613857565b610ffd565b005b61037760048036038101906103729190613910565b6113bf565b60405161038491906138cd565b60405180910390f35b6103a760048036038101906103a29190613857565b6113df565b6040516103b491906138cd565b60405180910390f35b6103c56113f4565b6040516103d29190613dfe565b60405180910390f35b6103e3611419565b6040516103f293929190613eda565b60405180910390f35b610403611a3c565b6040516104109190613f44565b60405180910390f35b6006602052805f5260405f205f915054906101000a900460ff1681565b600c5481565b5f60048054905090505f810361045257506105b2565b5f61045b611a60565b90505f61046782611bd8565b90505f5f610476836014611eda565b915091505f5f5b8681101561051a5785818151811061049857610497613f5d565b5b60200260200101518482815181106104b3576104b2613f5d565b5b6020026020010151111561050f578581815181106104d4576104d3613f5d565b5b60200260200101518482815181106104ef576104ee613f5d565b5b60200260200101516105019190613fb7565b8261050c9190613fea565b91505b80600101905061047d565b505f60148310806105355750610534848660200151611fd6565b5b9050610541868561203d565b42600b8190555082600c8190555080600d5f6101000a81548160ff02191690831515021790555081600e819055507fdb40c322e2332e6ff082551ba0fcccd9d9c1df1e166b5c16a81ebc2dfd3d167b8382846040516105a29392919061401d565b60405180910390a1505050505050505b565b600d5f9054906101000a900460ff1681565b600e5481565b600481815481106105db575f80fd5b905f5260205f20015f915054906101000a900473ffffffffffffffffffffffffffffffffffffffff1681565b600b5481565b5f600480549050905090565b60025f9054906101000a900473ffffffffffffffffffffffffffffffffffffffff1673ffffffffffffffffffffffffffffffffffffffff163373ffffffffffffffffffffffffffffffffffffffff161461069f576040517f5fc483c500000000000000000000000000000000000000000000000000000000815260040160405180910390fd5b8060038190555050565b6060805f600884815481106106c1576106c0613f5d565b5b905f5260205f20015490505f60086001866106dc9190613fea565b815481106106ed576106ec613f5d565b5b905f5260205f20015490505f82826107059190613fb7565b90508067ffffffffffffffff81111561072157610720614052565b5b60405190808252806020026020018201604052801561074f5781602001602082028036833780820191505090505b5094508067ffffffffffffffff81111561076c5761076b614052565b5b60405190808252806020026020018201604052801561079a5781602001602082028036833780820191505090505b5093505f5b8181101561088157600981856107b59190613fea565b815481106107c6576107c5613f5d565b5b905f5260205f2001548682815181106107e2576107e1613f5d565b5b602002602001018181525050600a81856107fc9190613fea565b8154811061080d5761080c613f5d565b5b905f5260205f209060029182820401919006600c029054906101000a90046bffffffffffffffffffffffff1685828151811061084c5761084b613f5d565b5b60200260200101906bffffffffffffffffffffffff1690816bffffffffffffffffffffffff168152505080600101905061079f565b50505050915091565b60035481565b5f5f9054906101000a900473ffffffffffffffffffffffffffffffffffffffff1673ffffffffffffffffffffffffffffffffffffffff166323b872dd3330846040518463ffffffff1660e01b81526004016108ed9392919061407f565b6020604051808303815f875af1158015610909573d5f5f3e3d5ffd5b505050506040513d601f19601f8201168201806040525081019061092d91906140de565b5050565b60025f9054906101000a900473ffffffffffffffffffffffffffffffffffffffff1681565b60025f9054906101000a900473ffffffffffffffffffffffffffffffffffffffff1673ffffffffffffffffffffffffffffffffffffffff163373ffffffffffffffffffffffffffffffffffffffff16146109dc576040517f5fc483c500000000000000000000000000000000000000000000000000000000815260040160405180910390fd5b60065f8673ffffffffffffffffffffffffffffffffffffffff1673ffffffffffffffffffffffffffffffffffffffff1681526020019081526020015f205f9054906101000a900460ff16610a5c576040517f014f556800000000000000000000000000000000000000000000000000000000815260040160405180910390fd5b818190508484905014610a9b576040517f292f2b8c00000000000000000000000000000000000000000000000000000000815260040160405180910390fd5b5f5f5b83839050811015610b4e57600480549050868683818110610ac257610ac1613f5d565b5b9050602002013510610b00576040517f292f2b8c00000000000000000000000000000000000000000000000000000000815260040160405180910390fd5b838382818110610b1357610b12613f5d565b5b9050602002016020810190610b289190614133565b6bffffffffffffffffffffffff1682610b419190613fea565b9150806001019050610a9e565b505f83839050118015610b695750670de0b6b3a76400008114155b15610ba0576040517f84677ce800000000000000000000000000000000000000000000000000000000815260040160405180910390fd5b5f60055f8873ffffffffffffffffffffffffffffffffffffffff1673ffffffffffffffffffffffffffffffffffffffff1681526020019081526020015f20549050610bee8187878787612cae565b8673ffffffffffffffffffffffffffffffffffffffff167f16a022ce244eee8e97bd80817a3e628790412241ed532d6edeafc353bb89157c60405160405180910390a250505050505050565b60025f9054906101000a900473ffffffffffffffffffffffffffffffffffffffff1673ffffffffffffffffffffffffffffffffffffffff163373ffffffffffffffffffffffffffffffffffffffff1614610cc0576040517f5fc483c500000000000000000000000000000000000000000000000000000000815260040160405180910390fd5b60065f8373ffffffffffffffffffffffffffffffffffffffff1673ffffffffffffffffffffffffffffffffffffffff1681526020019081526020015f205f9054906101000a900460ff1615610d41576040517f1d61a62600000000000000000000000000000000000000000000000000000000815260040160405180910390fd5b60048054905060055f8473ffffffffffffffffffffffffffffffffffffffff1673ffffffffffffffffffffffffffffffffffffffff1681526020019081526020015f2081905550600482908060018154018082558091505060019003905f5260205f20015f9091909190916101000a81548173ffffffffffffffffffffffffffffffffffffffff021916908373ffffffffffffffffffffffffffffffffffffffff160217905550600160065f8473ffffffffffffffffffffffffffffffffffffffff1673ffffffffffffffffffffffffffffffffffffffff1681526020019081526020015f205f6101000a81548160ff021916908315150217905550600781908060018154018082558091505060019003905f5260205f20015f90919091909150556008806001600880549050610e789190613fb7565b81548110610e8957610e88613f5d565b5b905f5260205f200154908060018154018082558091505060019003905f5260205f20015f90919091909150558173ffffffffffffffffffffffffffffffffffffffff167ff773bca07d020a1bc1fdd45ea3db573da547dd27180143afaf075c158a84759482604051610efb91906138cd565b60405180910390a25050565b60608060605f610f15611a60565b9050600481600782805480602002602001604051908101604052809291908181526020018280548015610f9a57602002820191905f5260205f20905b815f9054906101000a900473ffffffffffffffffffffffffffffffffffffffff1673ffffffffffffffffffffffffffffffffffffffff1681526020019060010190808311610f51575b5050505050925080805480602002602001604051908101604052809291908181526020018280548015610fea57602002820191905f5260205f20905b815481526020019060010190808311610fd6575b5050505050905093509350935050909192565b60025f9054906101000a900473ffffffffffffffffffffffffffffffffffffffff1673ffffffffffffffffffffffffffffffffffffffff163373ffffffffffffffffffffffffffffffffffffffff1614611083576040517f5fc483c500000000000000000000000000000000000000000000000000000000815260040160405180910390fd5b60065f8273ffffffffffffffffffffffffffffffffffffffff1673ffffffffffffffffffffffffffffffffffffffff1681526020019081526020015f205f9054906101000a900460ff16611103576040517f014f556800000000000000000000000000000000000000000000000000000000815260040160405180910390fd5b5f60055f8373ffffffffffffffffffffffffffffffffffffffff1673ffffffffffffffffffffffffffffffffffffffff1681526020019081526020015f205490505f60016004805490506111579190613fb7565b905080821461127a575f6004828154811061117557611174613f5d565b5b905f5260205f20015f9054906101000a900473ffffffffffffffffffffffffffffffffffffffff16905080600484815481106111b4576111b3613f5d565b5b905f5260205f20015f6101000a81548173ffffffffffffffffffffffffffffffffffffffff021916908373ffffffffffffffffffffffffffffffffffffffff1602179055508260055f8373ffffffffffffffffffffffffffffffffffffffff1673ffffffffffffffffffffffffffffffffffffffff1681526020019081526020015f20819055506007828154811061124f5761124e613f5d565b5b905f5260205f2001546007848154811061126c5761126b613f5d565b5b905f5260205f200181905550505b600480548061128c5761128b61415e565b5b600190038181905f5260205f20015f6101000a81549073ffffffffffffffffffffffffffffffffffffffff0219169055905560078054806112d0576112cf61415e565b5b600190038181905f5260205f20015f9055905560055f8473ffffffffffffffffffffffffffffffffffffffff1673ffffffffffffffffffffffffffffffffffffffff1681526020019081526020015f205f905560065f8473ffffffffffffffffffffffffffffffffffffffff1673ffffffffffffffffffffffffffffffffffffffff1681526020019081526020015f205f6101000a81549060ff02191690556113776131e5565b8273ffffffffffffffffffffffffffffffffffffffff167fcfc24166db4bb677e857cacabd1541fb2b30645021b27c5130419589b84db52b60405160405180910390a2505050565b600781815481106113ce575f80fd5b905f5260205f20015f915090505481565b6005602052805f5260405f205f915090505481565b60015f9054906101000a900473ffffffffffffffffffffffffffffffffffffffff1681565b60608060605f60048054905090505f5f5b82811015611611575f6008828154811061144757611446613f5d565b5b905f5260205f20015490505f60086001846114629190613fea565b8154811061147357611472613f5d565b5b905f5260205f20015490505f8290505b81811015611603575f60015f9054906101000a900473ffffffffffffffffffffffffffffffffffffffff1673ffffffffffffffffffffffffffffffffffffffff16631d8b65265f5f9054906101000a900473ffffffffffffffffffffffffffffffffffffffff16600488815481106114fe576114fd613f5d565b5b905f5260205f20015f9054906101000a900473ffffffffffffffffffffffffffffffffffffffff1660046009878154811061153c5761153b613f5d565b5b905f5260205f2001548154811061155657611555613f5d565b5b905f5260205f20015f9054906101000a900473ffffffffffffffffffffffffffffffffffffffff166040518463ffffffff1660e01b815260040161159c9392919061418b565b602060405180830381865afa1580156115b7573d5f5f3e3d5ffd5b505050506040513d601f19601f820116820180604052508101906115db91906141ea565b90505f81600b0b13156115f75785806115f390614215565b9650505b81600101915050611483565b50826001019250505061142a565b508067ffffffffffffffff81111561162c5761162b614052565b5b60405190808252806020026020018201604052801561165a5781602001602082028036833780820191505090505b5094508067ffffffffffffffff81111561167757611676614052565b5b6040519080825280602002602001820160405280156116a55781602001602082028036833780820191505090505b5093508067ffffffffffffffff8111156116c2576116c1614052565b5b6040519080825280602002602001820160405280156116f05781602001602082028036833780820191505090505b5092505f5f5b83811015611a33575f6008828154811061171357611712613f5d565b5b905f5260205f20015490505f600860018461172e9190613fea565b8154811061173f5761173e613f5d565b5b905f5260205f20015490505f8290505b81811015611a25575f60015f9054906101000a900473ffffffffffffffffffffffffffffffffffffffff1673ffffffffffffffffffffffffffffffffffffffff16631d8b65265f5f9054906101000a900473ffffffffffffffffffffffffffffffffffffffff16600488815481106117ca576117c9613f5d565b5b905f5260205f20015f9054906101000a900473ffffffffffffffffffffffffffffffffffffffff1660046009878154811061180857611807613f5d565b5b905f5260205f2001548154811061182257611821613f5d565b5b905f5260205f20015f9054906101000a900473ffffffffffffffffffffffffffffffffffffffff166040518463ffffffff1660e01b81526004016118689392919061418b565b602060405180830381865afa158015611883573d5f5f3e3d5ffd5b505050506040513d601f19601f820116820180604052508101906118a791906141ea565b90505f81600b0b1315611a1957600485815481106118c8576118c7613f5d565b5b905f5260205f20015f9054906101000a900473ffffffffffffffffffffffffffffffffffffffff168b878151811061190357611902613f5d565b5b602002602001019073ffffffffffffffffffffffffffffffffffffffff16908173ffffffffffffffffffffffffffffffffffffffff168152505060046009838154811061195357611952613f5d565b5b905f5260205f2001548154811061196d5761196c613f5d565b5b905f5260205f20015f9054906101000a900473ffffffffffffffffffffffffffffffffffffffff168a87815181106119a8576119a7613f5d565b5b602002602001019073ffffffffffffffffffffffffffffffffffffffff16908173ffffffffffffffffffffffffffffffffffffffff1681525050808987815181106119f6576119f5613f5d565b5b6020026020010190600b0b9081600b0b815250508580611a1590614215565b9650505b8160010191505061174f565b5082600101925050506116f6565b50505050909192565b5f5f9054906101000a900473ffffffffffffffffffffffffffffffffffffffff1681565b60605f60048054905090508067ffffffffffffffff811115611a8557611a84614052565b5b604051908082528060200260200182016040528015611ab35781602001602082028036833780820191505090505b5091505f5b81811015611bd3575f5f5f9054906101000a900473ffffffffffffffffffffffffffffffffffffffff1673ffffffffffffffffffffffffffffffffffffffff16632ec8eec760048481548110611b1157611b10613f5d565b5b905f5260205f20015f9054906101000a900473ffffffffffffffffffffffffffffffffffffffff166040518263ffffffff1660e01b8152600401611b55919061394a565b608060405180830381865afa158015611b70573d5f5f3e3d5ffd5b505050506040513d601f19601f82011682018060405250810190611b9491906142a3565b50505090505f8113611ba6575f611ba8565b805b848381518110611bbb57611bba613f5d565b5b60200260200101818152505081600101915050611ab8565b505090565b611be0613762565b5f60048054905090505f60098054905090505f8167ffffffffffffffff811115611c0d57611c0c614052565b5b604051908082528060200260200182016040528015611c3b5781602001602082028036833780820191505090505b5090505f8267ffffffffffffffff811115611c5957611c58614052565b5b604051908082528060200260200182016040528015611c875781602001602082028036833780820191505090505b5090505f600185611c989190613fea565b67ffffffffffffffff811115611cb157611cb0614052565b5b604051908082528060200260200182016040528015611cdf5781602001602082028036833780820191505090505b5090505f5b84811015611db05760098181548110611d0057611cff613f5d565b5b905f5260205f200154848281518110611d1c57611d1b613f5d565b5b602002602001018181525050600a8181548110611d3c57611d3b613f5d565b5b905f5260205f209060029182820401919006600c029054906101000a90046bffffffffffffffffffffffff16838281518110611d7b57611d7a613f5d565b5b60200260200101906bffffffffffffffffffffffff1690816bffffffffffffffffffffffff1681525050806001019050611ce4565b505f5b858111611e015760088181548110611dce57611dcd613f5d565b5b905f5260205f200154828281518110611dea57611de9613f5d565b5b602002602001018181525050806001019050611db3565b505f8567ffffffffffffffff811115611e1d57611e1c614052565b5b604051908082528060200260200182016040528015611e4b5781602001602082028036833780820191505090505b5090505f5b86811015611e9f5760078181548110611e6c57611e6b613f5d565b5b905f5260205f200154828281518110611e8857611e87613f5d565b5b602002602001018181525050806001019050611e50565b506040518060c00160405280878152602001898152602001828152602001858152602001848152602001838152509650505050505050919050565b60605f5f845f015190505f8167ffffffffffffffff811115611eff57611efe614052565b5b604051908082528060200260200182016040528015611f2d5781602001602082028036833780820191505090505b5090505f5b82811015611f835786602001518181518110611f5157611f50613f5d565b5b6020026020010151828281518110611f6c57611f6b613f5d565b5b602002602001018181525050806001019050611f32565b505f92505b84831015611fc9578086602001819052505f5f611fa488613253565b9150915084600101945080611fbf5781955050505050611fcf565b8192505050611f88565b80935050505b9250929050565b5f5f5b835181101561203157828181518110611ff557611ff4613f5d565b5b60200260200101518482815181106120105761200f613f5d565b5b602002602001015114612026575f915050612037565b806001019050611fd9565b50600190505b92915050565b5f60048054905090505f5b81811015612ca8575f61209185838151811061206757612066613f5d565b5b60200260200101516007848154811061208357612082613f5d565b5b905f5260205f2001546135c0565b90505f600883815481106120a8576120a7613f5d565b5b905f5260205f20015490505f60086001856120c39190613fea565b815481106120d4576120d3613f5d565b5b905f5260205f20015490505f8290505b81811015612c99575f6009828154811061210157612100613f5d565b5b905f5260205f20015490505f600a838154811061212157612120613f5d565b5b905f5260205f209060029182820401919006600c029054906101000a90046bffffffffffffffffffffffff1690505f5f87111561219a575f670de0b6b3a7640000836bffffffffffffffffffffffff168961217c9190614307565b6121869190614375565b9050600354816121969190614375565b9150505b5f60015f9054906101000a900473ffffffffffffffffffffffffffffffffffffffff1673ffffffffffffffffffffffffffffffffffffffff16631d8b65265f5f9054906101000a900473ffffffffffffffffffffffffffffffffffffffff1660048c8154811061220d5761220c613f5d565b5b905f5260205f20015f9054906101000a900473ffffffffffffffffffffffffffffffffffffffff166004888154811061224957612248613f5d565b5b905f5260205f20015f9054906101000a900473ffffffffffffffffffffffffffffffffffffffff166040518463ffffffff1660e01b815260040161228f9392919061418b565b602060405180830381865afa1580156122aa573d5f5f3e3d5ffd5b505050506040513d601f19601f820116820180604052508101906122ce91906141ea565b90505f82600b0b1380156122e457505f81600b0b145b156126115760015f9054906101000a900473ffffffffffffffffffffffffffffffffffffffff1673ffffffffffffffffffffffffffffffffffffffff1663c5ad5c1a5f5f9054906101000a900473ffffffffffffffffffffffffffffffffffffffff1660048c8154811061235b5761235a613f5d565b5b905f5260205f20015f9054906101000a900473ffffffffffffffffffffffffffffffffffffffff166004888154811061239757612396613f5d565b5b905f5260205f20015f9054906101000a900473ffffffffffffffffffffffffffffffffffffffff16866040518563ffffffff1660e01b81526004016123df94939291906143b4565b6020604051808303815f875af192505050801561241a57506040513d601f19601f8201168201806040525081019061241791906140de565b60015b61252f573d805f8114612448576040519150601f19603f3d011682016040523d82523d5f602084013e61244d565b606091505b506004858154811061246257612461613f5d565b5b905f5260205f20015f9054906101000a900473ffffffffffffffffffffffffffffffffffffffff1673ffffffffffffffffffffffffffffffffffffffff1660048b815481106124b4576124b3613f5d565b5b905f5260205f20015f9054906101000a900473ffffffffffffffffffffffffffffffffffffffff1673ffffffffffffffffffffffffffffffffffffffff167f4d9fc539be2fca1c387b988fa4a65c3c597237bd4181ab01839c76b179d38ae0836040516125219190614467565b60405180910390a35061260c565b506004848154811061254457612543613f5d565b5b905f5260205f20015f9054906101000a900473ffffffffffffffffffffffffffffffffffffffff1673ffffffffffffffffffffffffffffffffffffffff1660048a8154811061259657612595613f5d565b5b905f5260205f20015f9054906101000a900473ffffffffffffffffffffffffffffffffffffffff1673ffffffffffffffffffffffffffffffffffffffff167f2b2352355b65ede7e8b0f5f0b4e620cc452d5eff570dbd1a2281e60282b8f6e5846040516126039190614487565b60405180910390a35b612c8a565b5f82600b0b138015612629575081600b0b81600b0b14155b156129565760015f9054906101000a900473ffffffffffffffffffffffffffffffffffffffff1673ffffffffffffffffffffffffffffffffffffffff1663c5ad5c1a5f5f9054906101000a900473ffffffffffffffffffffffffffffffffffffffff1660048c815481106126a05761269f613f5d565b5b905f5260205f20015f9054906101000a900473ffffffffffffffffffffffffffffffffffffffff16600488815481106126dc576126db613f5d565b5b905f5260205f20015f9054906101000a900473ffffffffffffffffffffffffffffffffffffffff16866040518563ffffffff1660e01b815260040161272494939291906143b4565b6020604051808303815f875af192505050801561275f57506040513d601f19601f8201168201806040525081019061275c91906140de565b60015b612874573d805f811461278d576040519150601f19603f3d011682016040523d82523d5f602084013e612792565b606091505b50600485815481106127a7576127a6613f5d565b5b905f5260205f20015f9054906101000a900473ffffffffffffffffffffffffffffffffffffffff1673ffffffffffffffffffffffffffffffffffffffff1660048b815481106127f9576127f8613f5d565b5b905f5260205f20015f9054906101000a900473ffffffffffffffffffffffffffffffffffffffff1673ffffffffffffffffffffffffffffffffffffffff167f4d9fc539be2fca1c387b988fa4a65c3c597237bd4181ab01839c76b179d38ae0836040516128669190614467565b60405180910390a350612951565b506004848154811061288957612888613f5d565b5b905f5260205f20015f9054906101000a900473ffffffffffffffffffffffffffffffffffffffff1673ffffffffffffffffffffffffffffffffffffffff1660048a815481106128db576128da613f5d565b5b905f5260205f20015f9054906101000a900473ffffffffffffffffffffffffffffffffffffffff1673ffffffffffffffffffffffffffffffffffffffff167f380e736035f576ddac6cdcd2d0be65e74dcf235f11bd0eedd2a100adcd0f6610846040516129489190614487565b60405180910390a35b612c89565b5f82600b0b14801561296a57505f81600b0b135b15612c885760015f9054906101000a900473ffffffffffffffffffffffffffffffffffffffff1673ffffffffffffffffffffffffffffffffffffffff1663c5ad5c1a5f5f9054906101000a900473ffffffffffffffffffffffffffffffffffffffff1660048c815481106129e1576129e0613f5d565b5b905f5260205f20015f9054906101000a900473ffffffffffffffffffffffffffffffffffffffff1660048881548110612a1d57612a1c613f5d565b5b905f5260205f20015f9054906101000a900473ffffffffffffffffffffffffffffffffffffffff165f6040518563ffffffff1660e01b8152600401612a6594939291906144d9565b6020604051808303815f875af1925050508015612aa057506040513d601f19601f82011682018060405250810190612a9d91906140de565b60015b612bb5573d805f8114612ace576040519150601f19603f3d011682016040523d82523d5f602084013e612ad3565b606091505b5060048581548110612ae857612ae7613f5d565b5b905f5260205f20015f9054906101000a900473ffffffffffffffffffffffffffffffffffffffff1673ffffffffffffffffffffffffffffffffffffffff1660048b81548110612b3a57612b39613f5d565b5b905f5260205f20015f9054906101000a900473ffffffffffffffffffffffffffffffffffffffff1673ffffffffffffffffffffffffffffffffffffffff167f4d9fc539be2fca1c387b988fa4a65c3c597237bd4181ab01839c76b179d38ae083604051612ba79190614467565b60405180910390a350612c87565b5060048481548110612bca57612bc9613f5d565b5b905f5260205f20015f9054906101000a900473ffffffffffffffffffffffffffffffffffffffff1673ffffffffffffffffffffffffffffffffffffffff1660048a81548110612c1c57612c1b613f5d565b5b905f5260205f20015f9054906101000a900473ffffffffffffffffffffffffffffffffffffffff1673ffffffffffffffffffffffffffffffffffffffff167f732309c7ef763aa1f86535c7e65161ed3bf7a22da9e654bf554ea1178a1aeb0960405160405180910390a35b5b5b5b846001019450505050506120e4565b50836001019350505050612048565b50505050565b5f60048054905090505f600182612cc59190613fea565b67ffffffffffffffff811115612cde57612cdd614052565b5b604051908082528060200260200182016040528015612d0c5781602001602082028036833780820191505090505b5090505f5f5b83811015612da057888103612d37578787905082612d309190613fea565b9150612d95565b60088181548110612d4b57612d4a613f5d565b5b905f5260205f2001546008600183612d639190613fea565b81548110612d7457612d73613f5d565b5b905f5260205f200154612d879190613fb7565b82612d929190613fea565b91505b806001019050612d12565b505f8167ffffffffffffffff811115612dbc57612dbb614052565b5b604051908082528060200260200182016040528015612dea5781602001602082028036833780820191505090505b5090505f8267ffffffffffffffff811115612e0857612e07614052565b5b604051908082528060200260200182016040528015612e365781602001602082028036833780820191505090505b5090505f5f5b8681101561306f5781868281518110612e5857612e57613f5d565b5b6020026020010181815250508b8103612f35575f5b8b8b9050811015612f2f578b8b82818110612e8b57612e8a613f5d565b5b90506020020135858481518110612ea557612ea4613f5d565b5b602002602001018181525050898982818110612ec457612ec3613f5d565b5b9050602002016020810190612ed99190614133565b848481518110612eec57612eeb613f5d565b5b60200260200101906bffffffffffffffffffffffff1690816bffffffffffffffffffffffff16815250508280612f2190614215565b935050806001019050612e6d565b50613064565b5f60088281548110612f4a57612f49613f5d565b5b905f5260205f20015490505f6008600184612f659190613fea565b81548110612f7657612f75613f5d565b5b905f5260205f20015490505f8290505b818110156130605760098181548110612fa257612fa1613f5d565b5b905f5260205f200154878681518110612fbe57612fbd613f5d565b5b602002602001018181525050600a8181548110612fde57612fdd613f5d565b5b905f5260205f209060029182820401919006600c029054906101000a90046bffffffffffffffffffffffff1686868151811061301d5761301c613f5d565b5b60200260200101906bffffffffffffffffffffffff1690816bffffffffffffffffffffffff1681525050848061305290614215565b955050806001019050612f86565b5050505b806001019050612e3c565b508085878151811061308457613083613f5d565b5b60200260200101818152505060085f61309d9190613797565b60095f6130aa9190613797565b600a5f6130b791906137b5565b5f5b86811161310b5760088682815181106130d5576130d4613f5d565b5b6020026020010151908060018154018082558091505060019003905f5260205f20015f90919091909150558060010190506130b9565b505f5b848110156131d757600984828151811061312b5761312a613f5d565b5b6020026020010151908060018154018082558091505060019003905f5260205f20015f9091909190915055600a83828151811061316b5761316a613f5d565b5b6020026020010151908060018154018082558091505060019003905f5260205f209060029182820401919006600c029091909190916101000a8154816bffffffffffffffffffffffff02191690836bffffffffffffffffffffffff16021790555080600101905061310e565b505050505050505050505050565b5f600480549050905060085f6131fb9190613797565b60095f6132089190613797565b600a5f61321591906137b5565b5f5b81811161324f5760085f908060018154018082558091505060019003905f5260205f20015f9091909190915055806001019050613217565b5050565b60605f5f835f015190508067ffffffffffffffff81111561327757613276614052565b5b6040519080825280602002602001820160405280156132a55781602001602082028036833780820191505090505b5092505f5b81811015613322576132f8856020015182815181106132cc576132cb613f5d565b5b6020026020010151866040015183815181106132eb576132ea613f5d565b5b60200260200101516135e3565b84828151811061330b5761330a613f5d565b5b6020026020010181815250508060010190506132aa565b505f5b8181101561355b575f6133748660200151838151811061334857613347613f5d565b5b60200260200101518760400151848151811061336757613366613f5d565b5b60200260200101516135c0565b90505f81111561354f575f8660a00151838151811061339657613395613f5d565b5b602002602001015190505f8760a001516001856133b39190613fea565b815181106133c4576133c3613f5d565b5b602002602001015190505f82826133db9190613fb7565b90505f81111561354b575f8167ffffffffffffffff811115613400576133ff614052565b5b60405190808252806020026020018201604052801561342e5781602001602082028036833780820191505090505b5090505f5b828110156134ad578a60800151818661344c9190613fea565b8151811061345d5761345c613f5d565b5b602002602001015182828151811061347857613477613f5d565b5b60200260200101906bffffffffffffffffffffffff1690816bffffffffffffffffffffffff1681525050806001019050613433565b505f6134b986836135fb565b90505f5b83811015613547575f8c6060015182886134d79190613fea565b815181106134e8576134e7613f5d565b5b6020026020010151905082828151811061350557613504613f5d565b5b60200260200101518c82815181106135205761351f613f5d565b5b602002602001018181516135349190613fea565b91508181525050816001019150506134bd565b5050505b5050505b81600101915050613325565b505f5b818110156135b9578460200151818151811061357d5761357c613f5d565b5b602002602001015184828151811061359857613597613f5d565b5b6020026020010151146135ae57600192506135b9565b80600101905061355e565b5050915091565b5f8183116135ce575f6135db565b81836135da9190613fb7565b5b905092915050565b5f8183106135f157816135f3565b825b905092915050565b60605f825190508067ffffffffffffffff81111561361c5761361b614052565b5b60405190808252806020026020018201604052801561364a5781602001602082028036833780820191505090505b5091505f84148061365a57505f81145b15613665575061375c565b5f5f5b8281101561370957670de0b6b3a764000085828151811061368c5761368b613f5d565b5b60200260200101516bffffffffffffffffffffffff16876136ad9190614307565b6136b79190614375565b8482815181106136ca576136c9613f5d565b5b6020026020010181815250508381815181106136e9576136e8613f5d565b5b6020026020010151826136fc9190613fea565b9150806001019050613668565b508481101561375957808561371e9190613fb7565b8360018461372c9190613fb7565b8151811061373d5761373c613f5d565b5b602002602001018181516137519190613fea565b915081815250505b50505b92915050565b6040518060c001604052805f815260200160608152602001606081526020016060815260200160608152602001606081525090565b5080545f8255905f5260205f20908101906137b291906137da565b50565b5080545f825560010160029004905f5260205f20908101906137d791906137da565b50565b5b808211156137f1575f815f9055506001016137db565b5090565b5f5ffd5b5f5ffd5b5f73ffffffffffffffffffffffffffffffffffffffff82169050919050565b5f613826826137fd565b9050919050565b6138368161381c565b8114613840575f5ffd5b50565b5f813590506138518161382d565b92915050565b5f6020828403121561386c5761386b6137f5565b5b5f61387984828501613843565b91505092915050565b5f8115159050919050565b61389681613882565b82525050565b5f6020820190506138af5f83018461388d565b92915050565b5f819050919050565b6138c7816138b5565b82525050565b5f6020820190506138e05f8301846138be565b92915050565b6138ef816138b5565b81146138f9575f5ffd5b50565b5f8135905061390a816138e6565b92915050565b5f60208284031215613925576139246137f5565b5b5f613932848285016138fc565b91505092915050565b6139448161381c565b82525050565b5f60208201905061395d5f83018461393b565b92915050565b5f81519050919050565b5f82825260208201905092915050565b5f819050602082019050919050565b613995816138b5565b82525050565b5f6139a6838361398c565b60208301905092915050565b5f602082019050919050565b5f6139c882613963565b6139d2818561396d565b93506139dd8361397d565b805f5b83811015613a0d5781516139f4888261399b565b97506139ff836139b2565b9250506001810190506139e0565b5085935050505092915050565b5f81519050919050565b5f82825260208201905092915050565b5f819050602082019050919050565b5f6bffffffffffffffffffffffff82169050919050565b613a6381613a43565b82525050565b5f613a748383613a5a565b60208301905092915050565b5f602082019050919050565b5f613a9682613a1a565b613aa08185613a24565b9350613aab83613a34565b805f5b83811015613adb578151613ac28882613a69565b9750613acd83613a80565b925050600181019050613aae565b5085935050505092915050565b5f6040820190508181035f830152613b0081856139be565b90508181036020830152613b148184613a8c565b90509392505050565b5f5ffd5b5f5ffd5b5f5ffd5b5f5f83601f840112613b3e57613b3d613b1d565b5b8235905067ffffffffffffffff811115613b5b57613b5a613b21565b5b602083019150836020820283011115613b7757613b76613b25565b5b9250929050565b5f5f83601f840112613b9357613b92613b1d565b5b8235905067ffffffffffffffff811115613bb057613baf613b21565b5b602083019150836020820283011115613bcc57613bcb613b25565b5b9250929050565b5f5f5f5f5f60608688031215613bec57613beb6137f5565b5b5f613bf988828901613843565b955050602086013567ffffffffffffffff811115613c1a57613c196137f9565b5b613c2688828901613b29565b9450945050604086013567ffffffffffffffff811115613c4957613c486137f9565b5b613c5588828901613b7e565b92509250509295509295909350565b5f5f60408385031215613c7a57613c796137f5565b5b5f613c8785828601613843565b9250506020613c98858286016138fc565b9150509250929050565b5f81519050919050565b5f82825260208201905092915050565b5f819050602082019050919050565b613cd48161381c565b82525050565b5f613ce58383613ccb565b60208301905092915050565b5f602082019050919050565b5f613d0782613ca2565b613d118185613cac565b9350613d1c83613cbc565b805f5b83811015613d4c578151613d338882613cda565b9750613d3e83613cf1565b925050600181019050613d1f565b5085935050505092915050565b5f6060820190508181035f830152613d718186613cfd565b90508181036020830152613d8581856139be565b90508181036040830152613d9981846139be565b9050949350505050565b5f819050919050565b5f613dc6613dc1613dbc846137fd565b613da3565b6137fd565b9050919050565b5f613dd782613dac565b9050919050565b5f613de882613dcd565b9050919050565b613df881613dde565b82525050565b5f602082019050613e115f830184613def565b92915050565b5f81519050919050565b5f82825260208201905092915050565b5f819050602082019050919050565b5f81600b0b9050919050565b613e5581613e40565b82525050565b5f613e668383613e4c565b60208301905092915050565b5f602082019050919050565b5f613e8882613e17565b613e928185613e21565b9350613e9d83613e31565b805f5b83811015613ecd578151613eb48882613e5b565b9750613ebf83613e72565b925050600181019050613ea0565b5085935050505092915050565b5f6060820190508181035f830152613ef28186613cfd565b90508181036020830152613f068185613cfd565b90508181036040830152613f1a8184613e7e565b9050949350505050565b5f613f2e82613dcd565b9050919050565b613f3e81613f24565b82525050565b5f602082019050613f575f830184613f35565b92915050565b7f4e487b71000000000000000000000000000000000000000000000000000000005f52603260045260245ffd5b7f4e487b71000000000000000000000000000000000000000000000000000000005f52601160045260245ffd5b5f613fc1826138b5565b9150613fcc836138b5565b9250828203905081811115613fe457613fe3613f8a565b5b92915050565b5f613ff4826138b5565b9150613fff836138b5565b925082820190508082111561401757614016613f8a565b5b92915050565b5f6060820190506140305f8301866138be565b61403d602083018561388d565b61404a60408301846138be565b949350505050565b7f4e487b71000000000000000000000000000000000000000000000000000000005f52604160045260245ffd5b5f6060820190506140925f83018661393b565b61409f602083018561393b565b6140ac60408301846138be565b949350505050565b6140bd81613882565b81146140c7575f5ffd5b50565b5f815190506140d8816140b4565b92915050565b5f602082840312156140f3576140f26137f5565b5b5f614100848285016140ca565b91505092915050565b61411281613a43565b811461411c575f5ffd5b50565b5f8135905061412d81614109565b92915050565b5f60208284031215614148576141476137f5565b5b5f6141558482850161411f565b91505092915050565b7f4e487b71000000000000000000000000000000000000000000000000000000005f52603160045260245ffd5b5f60608201905061419e5f83018661393b565b6141ab602083018561393b565b6141b8604083018461393b565b949350505050565b6141c981613e40565b81146141d3575f5ffd5b50565b5f815190506141e4816141c0565b92915050565b5f602082840312156141ff576141fe6137f5565b5b5f61420c848285016141d6565b91505092915050565b5f61421f826138b5565b91507fffffffffffffffffffffffffffffffffffffffffffffffffffffffffffffffff820361425157614250613f8a565b5b600182019050919050565b5f819050919050565b61426e8161425c565b8114614278575f5ffd5b50565b5f8151905061428981614265565b92915050565b5f8151905061429d816138e6565b92915050565b5f5f5f5f608085870312156142bb576142ba6137f5565b5b5f6142c88782880161427b565b94505060206142d98782880161428f565b93505060406142ea8782880161428f565b92505060606142fb8782880161428f565b91505092959194509250565b5f614311826138b5565b915061431c836138b5565b925082820261432a816138b5565b9150828204841483151761434157614340613f8a565b5b5092915050565b7f4e487b71000000000000000000000000000000000000000000000000000000005f52601260045260245ffd5b5f61437f826138b5565b915061438a836138b5565b92508261439a57614399614348565b5b828204905092915050565b6143ae81613e40565b82525050565b5f6080820190506143c75f83018761393b565b6143d4602083018661393b565b6143e1604083018561393b565b6143ee60608301846143a5565b95945050505050565b5f81519050919050565b5f82825260208201905092915050565b8281835e5f83830152505050565b5f601f19601f8301169050919050565b5f614439826143f7565b6144438185614401565b9350614453818560208601614411565b61445c8161441f565b840191505092915050565b5f6020820190508181035f83015261447f818461442f565b905092915050565b5f60208201905061449a5f8301846143a5565b92915050565b5f819050919050565b5f6144c36144be6144b9846144a0565b613da3565b613e40565b9050919050565b6144d3816144a9565b82525050565b5f6080820190506144ec5f83018761393b565b6144f9602083018661393b565b614506604083018561393b565b61451360608301846144ca565b9594505050505056fea264697066735822122024e8f41ff6af3f1277382f90d6c8c448b6e02dedf7425a45d6eafaf40ef64c7964736f6c634300081e0033","linkReferences":{}},"methodIdentifiers":{"forwarder()":"f645d4f9","fundReserve(uint256)":"75c54224","getActiveStreams()":"fbfbb3de","getAllocations(uint256)":"514b0a21","getNetworkState()":"aa7b9fd7","getNodeCount()":"39bf397e","isNode(address)":"01750152","lastSettleConverged()":"16f53039","lastSettleIterations()":"0a72937d","lastSettleTimestamp()":"1db97214","lastSettleTotalRedistributed()":"18980ca1","nodeIndex(address)":"d673de46","nodes(uint256)":"1c53c280","owner()":"8da5cb5b","registerNode(address,uint256)":"a4f15c6d","removeNode(address)":"b2b99ec9","setAllocations(address,uint256[],uint96[])":"93024b84","setStreamEpoch(uint256)":"3bc25e59","settle()":"11da60b4","streamEpoch()":"553f1c62","thresholds(uint256)":"b6c22611","token()":"fc0c546a"},"id":0}