{"abi":[{"type":"function","name":"allowance","inputs":[{"name":"","type":"address","internalType":"address"},{"name":"","type":"address","internalType":"address"}],"outputs":[{"name":"","type":"uint256","internalType":"uint256"}],"stateMutability":"view"},{"type":"function","name":"approve","inputs":[{"name":"spender","type":"address","internalType":"address"},{"name":"amount","type":"uint256","internalType":"uint256"}],"outputs":[{"name":"","type":"bool","internalType":"bool"}],"stateMutability":"nonpayable"},{"type":"function","name":"balanceOf","inputs":[{"name":"","type":"address","internalType":"address"}],"outputs":[{"name":"","type":"uint256","internalType":"uint256"}],"stateMutability":"view"},{"type":"function","name":"realtimeBalance","inputs":[{"name":"","type":"address","internalType":"address"}],"outputs":[{"name":"","type":"int256","internalType":"int256"}],"stateMutability":"view"},{"type":"function","name":"realtimeBalanceOfNow","inputs":[{"name":"account","type":"address","internalType":"address"}],"outputs":[{"name":"availableBalance","type":"int256","internalType":"int256"},{"name":"deposit","type":"uint256","internalType":"uint256"},{"name":"owedDeposit","type":"uint256","internalType":"uint256"},{"name":"timestamp","type":"uint256","internalType":"uint256"}],"stateMutability":"view"},{"type":"function","name":"setBalance","inputs":[{"name":"account","type":"address","internalType":"address"},{"name":"amount","type":"uint256","internalType":"uint256"}],"outputs":[],"stateMutability":"nonpayable"},{"type":"function","name":"setRealtimeBalance","inputs":[{"name":"account","type":"address","internalType":"address"},{"name":"amount","type":"int256","internalType":"int256"}],"outputs":[],"stateMutability":"nonpayable"},{"type":"function","name":"transfer","inputs":[{"name":"to","type":"address","internalType":"address"},{"name":"amount","type":"uint256","internalType":"uint256"}],"outputs":[{"name":"","type":"bool","internalType":"bool"}],"stateMutability":"nonpayable"},{"type":"function","name":"transferFrom","inputs":[{"name":"from","type":"address","internalType":"address"},{"name":"to","type":"address","internalType":"address"},{"name":"amount","type":"uint256","internalType":"uint256"}],"outputs":[{"name":"","type":"bool","internalType":"bool"}],"stateMutability":"nonpayable"}],"bytecode":{"object":"0x6080604052348015600e575f5ffd5b50610b568061001c5f395ff3fe608060405234801561000f575f5ffd5b5060043610610091575f3560e01c806370a082311161006457806370a0823114610144578063a5ef398814610174578063a9059cbb146101a4578063dd62ed3e146101d4578063e30443bc1461020457610091565b8063095ea7b314610095578063190e67c0146100c557806323b872dd146100e15780632ec8eec714610111575b5f5ffd5b6100af60048036038101906100aa91906107de565b610220565b6040516100bc9190610836565b60405180910390f35b6100df60048036038101906100da9190610882565b6102a8565b005b6100fb60048036038101906100f691906108c0565b61037e565b6040516101089190610836565b60405180910390f35b61012b60048036038101906101269190610910565b6104d4565b60405161013b9493929190610959565b60405180910390f35b61015e60048036038101906101599190610910565b610528565b60405161016b919061099c565b60405180910390f35b61018e60048036038101906101899190610910565b61053c565b60405161019b91906109b5565b60405180910390f35b6101be60048036038101906101b991906107de565b610551565b6040516101cb9190610836565b60405180910390f35b6101ee60048036038101906101e991906109ce565b6106a6565b6040516101fb919061099c565b60405180910390f35b61021e600480360381019061021991906107de565b6106c6565b005b5f8160025f3373ffffffffffffffffffffffffffffffffffffffff1673ffffffffffffffffffffffffffffffffffffffff1681526020019081526020015f205f8573ffffffffffffffffffffffffffffffffffffffff1673ffffffffffffffffffffffffffffffffffffffff1681526020019081526020015f20819055506001905092915050565b8060015f8473ffffffffffffffffffffffffffffffffffffffff1673ffffffffffffffffffffffffffffffffffffffff1681526020019081526020015f20819055505f81131561033857805f5f8473ffffffffffffffffffffffffffffffffffffffff1673ffffffffffffffffffffffffffffffffffffffff1681526020019081526020015f208190555061037a565b5f5f5f8473ffffffffffffffffffffffffffffffffffffffff1673ffffffffffffffffffffffffffffffffffffffff1681526020019081526020015f20819055505b5050565b5f815f5f8673ffffffffffffffffffffffffffffffffffffffff1673ffffffffffffffffffffffffffffffffffffffff1681526020019081526020015f205f8282546103ca9190610a39565b92505081905550815f5f8573ffffffffffffffffffffffffffffffffffffffff1673ffffffffffffffffffffffffffffffffffffffff1681526020019081526020015f205f82825461041c9190610a6c565b925050819055508160015f8673ffffffffffffffffffffffffffffffffffffffff1673ffffffffffffffffffffffffffffffffffffffff1681526020019081526020015f205f82825461046f9190610a9f565b925050819055508160015f8573ffffffffffffffffffffffffffffffffffffffff1673ffffffffffffffffffffffffffffffffffffffff1681526020019081526020015f205f8282546104c29190610adf565b92505081905550600190509392505050565b5f5f5f5f60015f8673ffffffffffffffffffffffffffffffffffffffff1673ffffffffffffffffffffffffffffffffffffffff1681526020019081526020015f20545f5f4293509350935093509193509193565b5f602052805f5260405f205f915090505481565b6001602052805f5260405f205f915090505481565b5f815f5f3373ffffffffffffffffffffffffffffffffffffffff1673ffffffffffffffffffffffffffffffffffffffff1681526020019081526020015f205f82825461059d9190610a39565b92505081905550815f5f8573ffffffffffffffffffffffffffffffffffffffff1673ffffffffffffffffffffffffffffffffffffffff1681526020019081526020015f205f8282546105ef9190610a6c565b925050819055508160015f3373ffffffffffffffffffffffffffffffffffffffff1673ffffffffffffffffffffffffffffffffffffffff1681526020019081526020015f205f8282546106429190610a9f565b925050819055508160015f8573ffffffffffffffffffffffffffffffffffffffff1673ffffffffffffffffffffffffffffffffffffffff1681526020019081526020015f205f8282546106959190610adf565b925050819055506001905092915050565b6002602052815f5260405f20602052805f5260405f205f91509150505481565b805f5f8473ffffffffffffffffffffffffffffffffffffffff1673ffffffffffffffffffffffffffffffffffffffff1681526020019081526020015f20819055508060015f8473ffffffffffffffffffffffffffffffffffffffff1673ffffffffffffffffffffffffffffffffffffffff1681526020019081526020015f20819055505050565b5f5ffd5b5f73ffffffffffffffffffffffffffffffffffffffff82169050919050565b5f61077a82610751565b9050919050565b61078a81610770565b8114610794575f5ffd5b50565b5f813590506107a581610781565b92915050565b5f819050919050565b6107bd816107ab565b81146107c7575f5ffd5b50565b5f813590506107d8816107b4565b92915050565b5f5f604083850312156107f4576107f361074d565b5b5f61080185828601610797565b9250506020610812858286016107ca565b9150509250929050565b5f8115159050919050565b6108308161081c565b82525050565b5f6020820190506108495f830184610827565b92915050565b5f819050919050565b6108618161084f565b811461086b575f5ffd5b50565b5f8135905061087c81610858565b92915050565b5f5f604083850312156108985761089761074d565b5b5f6108a585828601610797565b92505060206108b68582860161086e565b9150509250929050565b5f5f5f606084860312156108d7576108d661074d565b5b5f6108e486828701610797565b93505060206108f586828701610797565b9250506040610906868287016107ca565b9150509250925092565b5f602082840312156109255761092461074d565b5b5f61093284828501610797565b91505092915050565b6109448161084f565b82525050565b610953816107ab565b82525050565b5f60808201905061096c5f83018761093b565b610979602083018661094a565b610986604083018561094a565b610993606083018461094a565b95945050505050565b5f6020820190506109af5f83018461094a565b92915050565b5f6020820190506109c85f83018461093b565b92915050565b5f5f604083850312156109e4576109e361074d565b5b5f6109f185828601610797565b9250506020610a0285828601610797565b9150509250929050565b7f4e487b71000000000000000000000000000000000000000000000000000000005f52601160045260245ffd5b5f610a43826107ab565b9150610a4e836107ab565b9250828203905081811115610a6657610a65610a0c565b5b92915050565b5f610a76826107ab565b9150610a81836107ab565b9250828201905080821115610a9957610a98610a0c565b5b92915050565b5f610aa98261084f565b9150610ab48361084f565b925082820390508181125f8412168282135f851215161715610ad957610ad8610a0c565b5b92915050565b5f610ae98261084f565b9150610af48361084f565b92508282019050828112155f8312168382125f841215161715610b1a57610b19610a0c565b5b9291505056fea264697066735822122004ed0361ac497b2bcba65d789fffe73ce338b5077a2e9bda84a4c441efba612264736f6c634300081e0033","linkReferences":{}},"methodIdentifiers":{"allowance(address,address)":"dd62ed3e","approve(address,uint256)":"095ea7b3","balanceOf(address)":"70a08231","realtimeBalance(address)":"a5ef3988","realtimeBalanceOfNow(address)":"2ec8eec7","setBalance(address,uint256)":"e30443bc","setRealtimeBalance(address,int256)":"190e67c0","transfer(address,uint256)":"a9059cbb","transferFrom(address,address,uint256)":"23b872dd"},"id":1}